:100000000C945D000C9485000C9485000C94850084
:100010000C9485000C9485000C9485000C9485004C
:100020000C9485000C9485000C9485000C9485003C
:100030000C9485000C9485000C9485000C9485002C
:100040000C947D040C9485000C944B040C942504B2
:100050000C9485000C9485000C9485000C9485000C
:100060000C9485000C94850000000008000201003B
:100070000003040700000000000000000000000072
:10008000250028002B0000000000240027002A0083
:10009000040404040404040402020202020203032E
:1000A0000303030301020408102040800102040836
:1000B0001020010204081020C70411241FBECFEF36
:1000C000D8E0DEBFCDBF22E0A4EAB1E001C01D92BE
:1000D000A636B207E1F711E0A0E0B1E0E8E8F1E10F
:1000E00002C005900D92A43AB107D9F710E0CDE512
:1000F000D0E004C02197FE010E94C106CC35D10793
:10010000C9F70E9411050C94C2080C94000090E0FD
:10011000FC01EC55FF4F249180579F4FFC018491C7
:10012000882399F090E0880F991FFC01EA57FF4F50
:10013000A591B491FC01E458FF4F859194918FB73C
:10014000F894EC91E22BEC938FBF0895AF92BF929D
:10015000CF92DF92EF92FF920F931F93CF93DF9393
:100160006C017B018B01040F151FEB015E01AE18C2
:10017000BF08C017D10759F06991D601ED91FC91E4
:100180000190F081E02DC6010995892B79F7C50111
:10019000DF91CF911F910F91FF90EF90DF90CF9063
:1001A000BF90AF900895FC01538D448D252F30E012
:1001B000842F90E0821B930B541710F0CF96089574
:1001C00001970895FC01918D828D981761F0A28DA1
:1001D000AE0FBF2FB11D5D968C91928D9F5F9F7367
:1001E000928F90E008958FEF9FEF08952FB7F894C6
:1001F0008091A9019091AA01A091AB01B091AC01AD
:100200002FBF8093B5019093B601A093B701B0932F
:10021000B8018DEA91E00E94E20097FF26C02FB757
:10022000F8948091A9019091AA01A091AB01B0919D
:10023000AC012FBF4091B5015091B6016091B7015B
:100240007091B801841B950BA60BB70B4091B101BF
:100250005091B2016091B3017091B4018417950778
:10026000A607B707B0F28FEF9FEF0895FC01918DBD
:10027000828D981731F0828DE80FF11D858D90E009
:1002800008958FEF9FEF0895FC01918D228D892FA6
:1002900090E0805C9F4F821B91098F73992708958E
:1002A0008DEA91E00E94440121E0892B09F420E0CD
:1002B000822F089580E090E0892B29F00E94500160
:1002C00081110C9400000895FC01A48DA80FB92F92
:1002D000B11DA35ABF4F2C91848D90E001968F736E
:1002E0009927848FA689B7892C93A089B1898C918D
:1002F000837080648C93938D848D981306C00288DC
:10030000F389E02D80818F7D80830895EF92FF92A5
:100310000F931F93CF93DF93EC0181E0888F9B8D28
:100320008C8D98131AC0E889F989808185FF15C0E2
:100330009FB7F894EE89FF896083E889F989808105
:100340008370806480839FBF81E090E0DF91CF91D4
:100350001F910F91FF90EF900895F62E0B8D10E0F6
:100360000F5F1F4F0F731127E02E8C8D8E110CC065
:100370000FB607FCFACFE889F989808185FFF5CFB0
:10038000CE010E946401F1CFEB8DEC0FFD2FF11D2A
:10039000E35AFF4FF0829FB7F8940B8FEA89FB89ED
:1003A00080818062CFCFCF93DF93EC01888D88234B
:1003B000B9F0AA89BB89E889F9898C9185FD03C0C8
:1003C000808186FD0DC00FB607FCF7CF8C9185FFAD
:1003D000F2CF808185FFEDCFCE010E946401E9CF8D
:1003E000DF91CF91089590E0FC01E859FF4F2491EF
:1003F000FC01EC55FF4F3491FC01E057FF4FE491B5
:10040000EE23C9F0222339F0233001F1A8F4213082
:1004100019F1223029F1F0E0EE0FFF1FE458FF4FF1
:10042000A591B4918FB7F894EC91611126C03095E5
:100430003E233C938FBF08952730A9F02830C9F0A0
:10044000243049F7809180008F7D03C08091800027
:100450008F7780938000DFCF84B58F7784BDDBCF2B
:1004600084B58F7DFBCF8091B0008F778093B000F3
:10047000D2CF8091B0008F7DF9CF3E2BDACF3FB73E
:10048000F8948091A5019091A601A091A701B09147
:10049000A80126B5A89B05C02F3F19F00196A11D04
:1004A000B11D3FBFBA2FA92F982F8827BC01CD01BE
:1004B000620F711D811D911D42E0660F771F881F1D
:1004C000991F4A95D1F708958F929F92AF92BF924C
:1004D000CF92DF92EF92FF924B015C010E943F02AC
:1004E0006B017C010E943F026C197D098E099F09F6
:1004F000683E734081059105A8F321E0821A9108B6
:10050000A108B10888EEC80E83E0D81EE11CF11CDA
:1005100081149104A104B10429F7FF90EF90DF90BA
:10052000CF90BF90AF909F908F900895089590E0E6
:1005300080E00895FC0101900020E9F73197AF01B8
:10054000481B590BBC018AE492E00C94A6000F935F
:100550001F93CF93DF93EC0188819981009759F025
:100560002A813B812617370730F081E0DF91CF9158
:100570001F910F9108958B016F5F7F4F0E94EC07D1
:10058000009759F0998388831B830A832C813D81CE
:10059000232B59F7FC011082E8CF80E0E7CFCF93FF
:1005A000DF93EC0160E08E810E94F30161E08E81B7
:1005B0000E94F30160E08E810E94F3018BE891E0DC
:1005C0000197F1F7DF91CF910895CF92DF92EF92EB
:1005D000FF920F931F93CF93DF936C017C0187E011
:1005E000E80EF11CD0E0C0E0062F10E0B8010C2EA0
:1005F00002C0759567950A94E2F76170F7018191E1
:100600007F010E94F3012196C430D10579F7C6011C
:10061000DF91CF911F910F91FF90EF90DF90CF90DE
:100620000C94CF02CF92DF92EF92FF920F931F9321
:10063000CF93DF93EC01F62E642F8C810E94F3019F
:100640008D818F3F19F060E00E94F3010F2D10E0C3
:100650008F8584FF25C06E0187E0C80ED11CF12C68
:10066000E12CB8010E2C02C0759567950A94E2F74B
:100670006170F60181916F010E94F301FFEFEF1AA3
:10068000FF0A88E0E816F10461F7CE01DF91CF910F
:100690001F910F91FF90EF90DF90CF900C94CF02BD
:1006A000B80184E0759567958A95E1F7CE010E94BF
:1006B000E5026F2DCE01DF91CF911F910F91FF9039
:1006C000EF90DF90CF900C94E50240E061E08AE487
:1006D00092E00E9412038BE39FE10197F1F70895E6
:1006E000CF93DF93823029F49091590298609093D0
:1006F000590280935D0210925E0280E480935F0253
:1007000080E18093600280E58093610280914E02D7
:100710000E94870080914F028F3F11F00E94870056
:10072000809150020E948700CAE4D2E09E012A54C0
:1007300032408091590284FD0AC084E090E0219605
:10074000281739073CF48E810E948700EFCF88E09C
:1007500090E0F5CF8BE39DE00197F1F760E08091A9
:100760004E020E94F30160E0809150020E94F3016A
:1007700080914F028F3F19F060E00E94F301609179
:10078000590264FD3DC063E08AE492E00E94E50204
:10079000CBE4D6E4CE010197F1F763E08AE492E07E
:1007A0000E94E5022197F1F763E08AE492E00E945B
:1007B000E50283E592E00197F1F762E08AE492E0D6
:1007C0000E94E50260915902606240E08AE492E092
:1007D0000E94120384E080935A0240E06CE08AE4B5
:1007E00092E00E9412030E94650382E080935B0204
:1007F00040E066E08AE492E0DF91CF910C9412032E
:10080000606240E08AE492E00E9412038BE496E486
:100810000197F1F760915902606240E08AE492E04A
:100820000E94120383E592E00197F1F7609159026B
:10083000606240E08AE492E00E941203C3CF41E08C
:100840000E94120381E090E008951F920F920FB66C
:100850000F9211242F933F934F935F936F937F9346
:100860008F939F93AF93BF93EF93FF938DEA91E0A4
:100870000E946401FF91EF91BF91AF919F918F9181
:100880007F916F915F914F913F912F910F900FBE8C
:100890000F901F9018951F920F920FB60F92112470
:1008A0002F938F939F93EF93FF93E091BD01F0916E
:1008B000BE018081E091C301F091C40182FD1BC0A3
:1008C00090818091C6018F5F8F732091C70182173D
:1008D00041F0E091C601F0E0E355FE4F958F809323
:1008E000C601FF91EF919F918F912F910F900FBEB5
:1008F0000F901F9018958081F4CF1F920F920FB622
:100900000F9211242F933F938F939F93AF93BF9395
:100910008091A9019091AA01A091AB01B091AC0185
:100920003091A40123E0230F2D3758F50196A11D26
:10093000B11D2093A4018093A9019093AA01A093D3
:10094000AB01B093AC018091A5019091A601A0915B
:10095000A701B091A8010196A11DB11D8093A50129
:100960009093A601A093A701B093A801BF91AF9166
:100970009F918F913F912F910F900FBE0F901F90DD
:10098000189526E8230F0296A11DB11DD2CFEDEADE
:10099000F1E01382128288EE93E0A0E0B0E084835D
:1009A0009583A683B7838AE091E09183808385EC69
:1009B00090E09587848784EC90E09787868780EC29
:1009C00090E0918B808B81EC90E0938B828B82EC1A
:1009D00090E0958B848B86EC90E0978B868B118EC4
:1009E000128E138E148EEAE4F2E0138212828CE1EE
:1009F00091E0918380838DE084838FEF85838CE009
:100A000086838BE087838AE0808789E0818788E01E
:100A100082871386148615861686178681E00C94C5
:100A20007003CF93DF93CDB7DEB728970FB6F89456
:100A3000DEBF0FBECDBF789484B5826084BD84B51F
:100A4000816084BD85B5826085BD85B5816085BDC9
:100A500080916E00816080936E0010928100809181
:100A60008100826080938100809181008160809309
:100A70008100809180008160809380008091B1002E
:100A800084608093B1008091B00081608093B00059
:100A900080917A00846080937A0080917A008260ED
:100AA00080937A0080917A00816080937A008091AF
:100AB0007A00806880937A001092C10082E00E94E0
:100AC0007003E091BD01F091BE0182E08083E0916E
:100AD000B901F091BA011082E091BB01F091BC0123
:100AE0008FEC80831092C501E091C101F091C201A9
:100AF00086E08083E091BF01F091C0018081806138
:100B00008083E091BF01F091C00180818860808383
:100B1000E091BF01F091C001808180688083E09105
:100B2000BF01F091C00180818F7D808387E00E94AA
:100B3000870061E087E00E94F30186E00E94870061
:100B400060E086E00E94F30184E291E00E949A0254
:100B500068EE73E080E090E00E9464020E9465030A
:100B600083E391E00E949A0268EE73E080E090E0F7
:100B70000E9464020E94650384E491E00E949A024C
:100B800064EF71E080E090E00E94640280E0E82E73
:100B900080E0F82E8DEA91E00E944401892B09F44F
:100BA0008EC01A8219821C821B821E821D8270E0F6
:100BB00060E0CE0101960E94A70229813A8181114D
:100BC0002FC02115310519F0C9010E9463071A824F
:100BD00019821E821D821C821B820E94F6004D819A
:100BE0005E8197FD25C08A30910511F18F831886AB
:100BF0008A010F5F1F4FB801CE0101960E94A70224
:100C0000882359F329813A818D819E81BE01695FD4
:100C10007F4F820F931F0E94BB081E830D83DDCF81
:100C20001E821D8267E571E0C9010E94BB08D5CF15
:100C300069817A818DEA91E00E94A60042E050E04D
:100C400065E571E08DEA91E00E94A6008D819E81AC
:100C5000892B09F440C068E571E089819A810E947E
:100C6000B208892BC1F50E9465038DE591E00E94D1
:100C70009A0264EF71E080E090E00E9464020E94BA
:100C800065038CE691E00E949A0268EE73E080E0D2
:100C900090E00E9464020E94650361E086E00E9489
:100CA000F30160E087E00E94F3018BE791E00E948E
:100CB0009A0289819A81009711F00E946307E114DA
:100CC000F10409F467CF0E945001882309F462CF30
:100CD0000E9400005FCF60E086E00E94F3010E9466
:100CE00065038BE891E00E949A0264EF71E080E076
:100CF00090E00E9464020E9465038AE991E00E94EC
:100D00009A0268E873E180E090E00E9464020E9429
:100D10006503CFCF2F923F924F925F926F927F9257
:100D20008F929F92AF92BF92CF92DF92EF92FF92FB
:100D30000F931F93CF93DF93CDB7DEB7CA1BDB0BA7
:100D40000FB6F894DEBF0FBECDBF09942A8839884C
:100D500048885F846E847D848C849B84AA84B98453
:100D6000C884DF80EE80FD800C811B81AA81B9815F
:100D7000CE0FD11D0FB6F894DEBF0FBECDBFED0173
:100D80000895EE0FFF1F0590F491E02D09940F9345
:100D90001F93CF93DF938230910510F482E090E0AF
:100DA000E0916402F091650230E020E0B0E0A0E064
:100DB000309799F42115310509F44AC0281B390BE5
:100DC00024303105D8F58A819B816115710589F13F
:100DD000FB0193838283FE0111C040815181028116
:100DE000138148175907E0F04817590799F41097ED
:100DF00061F012960C93129713961C933296CF01C2
:100E0000DF91CF911F910F91089500936402109389
:100E10006502F4CF2115310551F04217530738F020
:100E2000A901DB019A01BD01DF01F801C1CFEF018A
:100E3000F9CF9093650280936402CDCFFE01E20F5B
:100E4000F31F819391932250310939832883D7CF9F
:100E50002091620230916302232B41F42091020120
:100E600030910301309363022093620220910001CC
:100E7000309101012115310541F42DB73EB7409164
:100E8000040150910501241B350BE0916202F091A1
:100E90006302E217F307A0F42E1B3F0B2817390754
:100EA00078F0AC014E5F5F4F2417350748F04E0FC6
:100EB0005F1F5093630240936202819391939FCF8F
:100EC000F0E0E0E09CCFCF93DF930097E9F0FC01E6
:100ED000329713821282A0916402B0916502ED01F3
:100EE00030E020E01097A1F420813181820F931F20
:100EF00020916202309163022817390709F061C01E
:100F0000F0936302E0936202DF91CF910895EA01CA
:100F1000CE17DF07E8F54A815B819E014115510537
:100F2000B1F7E901FB83EA8349915991C40FD51FB9
:100F3000EC17FD0761F4808191810296840F951F63
:100F4000E90199838883828193819B838A83F0E07E
:100F5000E0E012968D919C9113970097B9F52D9131
:100F60003C911197CD010296820F931F209162024E
:100F7000309163022817390739F6309751F51092EE
:100F8000650210926402B0936302A0936202BCCF28
:100F9000D383C28340815181840F951FC817D9071D
:100FA00061F44E5F5F4F88819981480F591F5183CB
:100FB00040838A819B81938382832115310509F0C7
:100FC000B0CFF0936502E09364029ECFFD01DC0197
:100FD000C0CF13821282D7CFB0E0A0E0E2EFF7E0FB
:100FE0000C948C068C01009751F4CB010E94C7062B
:100FF0008C01C801CDB7DEB7E0E10C94A806FC0176
:10100000E60FF71F9C0122503109E217F30708F49D
:101010009DC0D901CD91DC911197C617D70798F0E3
:10102000C530D10530F3CE0104978617970708F332
:10103000C61BD70B2297C193D1936D937C93CF019D
:101040000E946307D6CF5B01AC1ABD0A4C018C0E1F
:101050009D1EA0916402B0916502512C412CF12C8F
:10106000E12C109731F5809162029091630288150E
:10107000990509F05CC04616570608F058C08091E3
:10108000000190910101009741F48DB79EB7409106
:10109000040150910501841B950BE817F90708F02E
:1010A00055C0F0936302E0936202F901718360839B
:1010B000A0CF8D919C91119712966C9012971396D8
:1010C0007C901397A815B90559F56C0142E0C40E40
:1010D000D11CCA14DB0420F1AC014A195B09DA0106
:1010E0001296159780F06282738251834083D901F2
:1010F0006D937C93E114F10471F0D7011396FC9386
:10110000EE93129776CF22968C0F9D1FF901918353
:101110008083F301EFCFF0936502E093640269CF1F
:101120004816590608F42C017D01D3019ACFCB0152
:101130000E94C7067C01009749F0AE01B8010E94E9
:10114000A908C8010E946307870153CF10E000E09F
:1011500050CFFB01DC0102C001900D924150504084
:10116000D8F70895FB01DC018D91019080190110E1
:10117000D9F3990B0895FB01DC0101900D92002039
:08118000E1F70895F894FFCF98
:10118800000066028000000000008601A600D3006F
:10119800D3014401E2003601000000001F04A6004C
:1011A8009702960250415353574F5244204241539D
:1011B8004544004349524355495420425245414B06
:1011C80045525300454E5445522050494E204E55E5
:1011D8004D424552000D0A00323030300050415324
:1011E80053574F5244204D415443480041434345CF
:1011F8005353204752414E544544004349524355A6
:10120800495420425245414B45440057524F4E479E
:101218002050415353574F5244005452592041478C
:0412280041494E00EA
:00000001FF
